{
  "contractName": "FIRSTORAGE",
  "abi": [
    {
      "anonymous": false,
      "inputs": [
        {
          "indexed": false,
          "internalType": "uint256",
          "name": "id",
          "type": "uint256"
        },
        {
          "indexed": false,
          "internalType": "string",
          "name": "hash",
          "type": "string"
        },
        {
          "indexed": false,
          "internalType": "uint256",
          "name": "firNumber",
          "type": "uint256"
        }
      ],
      "name": "FirCreated",
      "type": "event"
    },
    {
      "inputs": [
        {
          "internalType": "uint256",
          "name": "",
          "type": "uint256"
        }
      ],
      "name": "FIRs",
      "outputs": [
        {
          "internalType": "uint256",
          "name": "id",
          "type": "uint256"
        },
        {
          "internalType": "string",
          "name": "hash",
          "type": "string"
        },
        {
          "internalType": "uint256",
          "name": "firNumber",
          "type": "uint256"
        }
      ],
      "stateMutability": "view",
      "type": "function",
      "constant": true
    },
    {
      "inputs": [],
      "name": "FirCount",
      "outputs": [
        {
          "internalType": "uint256",
          "name": "",
          "type": "uint256"
        }
      ],
      "stateMutability": "view",
      "type": "function",
      "constant": true
    },
    {
      "inputs": [],
      "name": "name",
      "outputs": [
        {
          "internalType": "string",
          "name": "",
          "type": "string"
        }
      ],
      "stateMutability": "view",
      "type": "function",
      "constant": true
    },
    {
      "inputs": [
        {
          "internalType": "string",
          "name": "_firHash",
          "type": "string"
        },
        {
          "internalType": "uint256",
          "name": "_firNumber",
          "type": "uint256"
        }
      ],
      "name": "uploadFir",
      "outputs": [],
      "stateMutability": "nonpayable",
      "type": "function"
    },
    {
      "inputs": [
        {
          "internalType": "uint256",
          "name": "id",
          "type": "uint256"
        }
      ],
      "name": "getFIR",
      "outputs": [
        {
          "internalType": "string",
          "name": "",
          "type": "string"
        },
        {
          "internalType": "uint256",
          "name": "",
          "type": "uint256"
        }
      ],
      "stateMutability": "view",
      "type": "function",
      "constant": true
    }
  ],
  "bytecode": "0x60806040526040518060400160405280600381526020017f4649520000000000000000000000000000000000000000000000000000000000815250600090816200004a9190620002de565b5060006001553480156200005d57600080fd5b50620003c5565b600081519050919050565b7f4e487b7100000000000000000000000000000000000000000000000000000000600052604160045260246000fd5b7f4e487b7100000000000000000000000000000000000000000000000000000000600052602260045260246000fd5b60006002820490506001821680620000e657607f821691505b602082108103620000fc57620000fb6200009e565b5b50919050565b60008190508160005260206000209050919050565b60006020601f8301049050919050565b600082821b905092915050565b600060088302620001667fffffffffffffffffffffffffffffffffffffffffffffffffffffffffffffffff8262000127565b62000172868362000127565b95508019841693508086168417925050509392505050565b6000819050919050565b6000819050919050565b6000620001bf620001b9620001b3846200018a565b62000194565b6200018a565b9050919050565b6000819050919050565b620001db836200019e565b620001f3620001ea82620001c6565b84845462000134565b825550505050565b600090565b6200020a620001fb565b62000217818484620001d0565b505050565b5b818110156200023f576200023360008262000200565b6001810190506200021d565b5050565b601f8211156200028e57620002588162000102565b620002638462000117565b8101602085101562000273578190505b6200028b620002828562000117565b8301826200021c565b50505b505050565b600082821c905092915050565b6000620002b36000198460080262000293565b1980831691505092915050565b6000620002ce8383620002a0565b9150826002028217905092915050565b620002e98262000064565b67ffffffffffffffff8111156200030557620003046200006f565b5b620003118254620000cd565b6200031e82828562000243565b600060209050601f83116001811462000356576000841562000341578287015190505b6200034d8582620002c0565b865550620003bd565b601f198416620003668662000102565b60005b82811015620003905784890151825560018201915060208501945060208101905062000369565b86831015620003b05784890151620003ac601f891682620002a0565b8355505b6001600288020188555050505b505050505050565b610b9b80620003d56000396000f3fe608060405234801561001057600080fd5b50600436106100575760003560e01c806306fdde031461005c578063679b82001461007a578063801e86031461009857806394b4da50146100b4578063f1a5c418146100e6575b600080fd5b610064610117565b60405161007191906104e2565b60405180910390f35b6100826101a5565b60405161008f919061051d565b60405180910390f35b6100b260048036038101906100ad91906106ad565b6101ab565b005b6100ce60048036038101906100c99190610709565b610271565b6040516100dd93929190610736565b60405180910390f35b61010060048036038101906100fb9190610709565b610323565b60405161010e929190610774565b60405180910390f35b60008054610124906107d3565b80601f0160208091040260200160405190810160405280929190818152602001828054610150906107d3565b801561019d5780601f106101725761010080835404028352916020019161019d565b820191906000526020600020905b81548152906001019060200180831161018057829003601f168201915b505050505081565b60015481565b60008251116101b957600080fd5b600160008154809291906101cc90610833565b919050555060405180606001604052806001548152602001838152602001828152506002600060015481526020019081526020016000206000820151816000015560208201518160010190816102229190610a27565b50604082015181600201559050507f517405752c5c79b6df58f329ae301beaa129f77a7630cffad930a762fec9df91600154838360405161026593929190610736565b60405180910390a15050565b600260205280600052604060002060009150905080600001549080600101805461029a906107d3565b80601f01602080910402602001604051908101604052809291908181526020018280546102c6906107d3565b80156103135780601f106102e857610100808354040283529160200191610313565b820191906000526020600020905b8154815290600101906020018083116102f657829003601f168201915b5050505050908060020154905083565b606060008083118015610337575060015483105b610376576040517f08c379a000000000000000000000000000000000000000000000000000000000815260040161036d90610b45565b60405180910390fd5b600060026000858152602001908152602001600020604051806060016040529081600082015481526020016001820180546103b0906107d3565b80601f01602080910402602001604051908101604052809291908181526020018280546103dc906107d3565b80156104295780601f106103fe57610100808354040283529160200191610429565b820191906000526020600020905b81548152906001019060200180831161040c57829003601f168201915b505050505081526020016002820154815250509050806020015181604001519250925050915091565b600081519050919050565b600082825260208201905092915050565b60005b8381101561048c578082015181840152602081019050610471565b60008484015250505050565b6000601f19601f8301169050919050565b60006104b482610452565b6104be818561045d565b93506104ce81856020860161046e565b6104d781610498565b840191505092915050565b600060208201905081810360008301526104fc81846104a9565b905092915050565b6000819050919050565b61051781610504565b82525050565b6000602082019050610532600083018461050e565b92915050565b6000604051905090565b600080fd5b600080fd5b600080fd5b600080fd5b7f4e487b7100000000000000000000000000000000000000000000000000000000600052604160045260246000fd5b61058e82610498565b810181811067ffffffffffffffff821117156105ad576105ac610556565b5b80604052505050565b60006105c0610538565b90506105cc8282610585565b919050565b600067ffffffffffffffff8211156105ec576105eb610556565b5b6105f582610498565b9050602081019050919050565b82818337600083830152505050565b600061062461061f846105d1565b6105b6565b9050828152602081018484840111156106405761063f610551565b5b61064b848285610602565b509392505050565b600082601f8301126106685761066761054c565b5b8135610678848260208601610611565b91505092915050565b61068a81610504565b811461069557600080fd5b50565b6000813590506106a781610681565b92915050565b600080604083850312156106c4576106c3610542565b5b600083013567ffffffffffffffff8111156106e2576106e1610547565b5b6106ee85828601610653565b92505060206106ff85828601610698565b9150509250929050565b60006020828403121561071f5761071e610542565b5b600061072d84828501610698565b91505092915050565b600060608201905061074b600083018661050e565b818103602083015261075d81856104a9565b905061076c604083018461050e565b949350505050565b6000604082019050818103600083015261078e81856104a9565b905061079d602083018461050e565b9392505050565b7f4e487b7100000000000000000000000000000000000000000000000000000000600052602260045260246000fd5b600060028204905060018216806107eb57607f821691505b6020821081036107fe576107fd6107a4565b5b50919050565b7f4e487b7100000000000000000000000000000000000000000000000000000000600052601160045260246000fd5b600061083e82610504565b91507fffffffffffffffffffffffffffffffffffffffffffffffffffffffffffffffff82036108705761086f610804565b5b600182019050919050565b60008190508160005260206000209050919050565b60006020601f8301049050919050565b600082821b905092915050565b6000600883026108dd7fffffffffffffffffffffffffffffffffffffffffffffffffffffffffffffffff826108a0565b6108e786836108a0565b95508019841693508086168417925050509392505050565b6000819050919050565b600061092461091f61091a84610504565b6108ff565b610504565b9050919050565b6000819050919050565b61093e83610909565b61095261094a8261092b565b8484546108ad565b825550505050565b600090565b61096761095a565b610972818484610935565b505050565b5b818110156109965761098b60008261095f565b600181019050610978565b5050565b601f8211156109db576109ac8161087b565b6109b584610890565b810160208510156109c4578190505b6109d86109d085610890565b830182610977565b50505b505050565b600082821c905092915050565b60006109fe600019846008026109e0565b1980831691505092915050565b6000610a1783836109ed565b9150826002028217905092915050565b610a3082610452565b67ffffffffffffffff811115610a4957610a48610556565b5b610a5382546107d3565b610a5e82828561099a565b600060209050601f831160018114610a915760008415610a7f578287015190505b610a898582610a0b565b865550610af1565b601f198416610a9f8661087b565b60005b82811015610ac757848901518255600182019150602085019450602081019050610aa2565b86831015610ae45784890151610ae0601f8916826109ed565b8355505b6001600288020188555050505b505050505050565b7f496e76616c696420464952204944000000000000000000000000000000000000600082015250565b6000610b2f600e8361045d565b9150610b3a82610af9565b602082019050919050565b60006020820190508181036000830152610b5e81610b22565b905091905056fea2646970667358221220759edfd61930acff15b23aad49e0c14c6d147a1762ab1dc2f3dc48fa4c76e26564736f6c63430008120033",
  "immutableReferences": {},
  "source": "// SPDX-License-Identifier: MIT\r\npragma solidity >=0.4.22 <0.9.0;\r\n\r\ncontract FIRSTORAGE {\r\n    string public name = \"FIR\";\r\n    uint public FirCount = 0;\r\n    mapping(uint => FIR) public FIRs;\r\n\r\n    struct FIR {\r\n        uint id;\r\n        string hash;\r\n        uint firNumber;\r\n    }\r\n\r\n    event FirCreated(\r\n        uint id,\r\n        string hash,\r\n        uint firNumber\r\n    );\r\n\r\n    function uploadFir(string memory _firHash, uint _firNumber) public{\r\n  \r\n    // Make sure the fir hash is exist\r\n    require(bytes(_firHash).length>0);\r\n\r\n    // increament fir id\r\n    FirCount++;\r\n\r\n    // add fir to contract\r\n    FIRs[FirCount]=FIR(FirCount,_firHash,_firNumber);\r\n\r\n    // Trigger an event\r\n    emit FirCreated(FirCount,_firHash,_firNumber);\r\n\r\n  }\r\n\r\n    function getFIR(uint256 id) public view returns (string memory,uint) {\r\n        require(id > 0 && id < FirCount, \"Invalid FIR ID\");\r\n        FIR memory fir = FIRs[id];\r\n        return (fir.hash, fir.firNumber);\r\n    }\r\n}\r\n",
  "sourcePath": "C:\\Users\\Abdullah\\OneDrive\\Desktop\\BBEMS1\\truffle\\contracts\\Fir.sol",
  "compiler": {
    "name": "solc",
    "version": "0.8.18+commit.87f61d96.Emscripten.clang"
  },
  "schemaVersion": "3.4.12",
  "updatedAt": "2023-05-05T14:31:36.407Z",
  "networkType": "ethereum",
  "devdoc": {
    "kind": "dev",
    "methods": {},
    "version": 1
  },
  "userdoc": {
    "kind": "user",
    "methods": {},
    "version": 1
  }
}